{
  "_format": "hh-sol-artifact-1",
  "contractName": "SendEthInUsd",
  "sourceName": "contracts/SendEthInUsd.sol",
  "abi": [
    {
      "inputs": [
        {
          "internalType": "address",
          "name": "aggregatorAddress",
          "type": "address"
        }
      ],
      "stateMutability": "nonpayable",
      "type": "constructor"
    },
    {
      "inputs": [],
      "name": "getEthUsd",
      "outputs": [
        {
          "internalType": "int256",
          "name": "",
          "type": "int256"
        }
      ],
      "stateMutability": "view",
      "type": "function"
    },
    {
      "inputs": [
        {
          "internalType": "address payable",
          "name": "_to",
          "type": "address"
        }
      ],
      "name": "sendEther",
      "outputs": [],
      "stateMutability": "payable",
      "type": "function"
    }
  ],
  "bytecode": "0x608060405234801561001057600080fd5b506040516105c13803806105c18339818101604052810190610032919061008d565b806000806101000a81548173ffffffffffffffffffffffffffffffffffffffff021916908373ffffffffffffffffffffffffffffffffffffffff160217905550506100ff565b600081519050610087816100e8565b92915050565b60006020828403121561009f57600080fd5b60006100ad84828501610078565b91505092915050565b60006100c1826100c8565b9050919050565b600073ffffffffffffffffffffffffffffffffffffffff82169050919050565b6100f1816100b6565b81146100fc57600080fd5b50565b6104b38061010e6000396000f3fe6080604052600436106100295760003560e01c806348c981e21461002e578063bb27e0ce1461004a575b600080fd5b61004860048036038101906100439190610238565b610075565b005b34801561005657600080fd5b5061005f610128565b60405161006c9190610342565b60405180910390f35b6000808273ffffffffffffffffffffffffffffffffffffffff163460405161009c9061032d565b60006040518083038185875af1925050503d80600081146100d9576040519150601f19603f3d011682016040523d82523d6000602084013e6100de565b606091505b509150915081610123576040517f08c379a000000000000000000000000000000000000000000000000000000000815260040161011a9061035d565b60405180910390fd5b505050565b60008060008060008060008054906101000a900473ffffffffffffffffffffffffffffffffffffffff1673ffffffffffffffffffffffffffffffffffffffff1663feaf968c6040518163ffffffff1660e01b815260040160a06040518083038186803b15801561019757600080fd5b505afa1580156101ab573d6000803e3d6000fd5b505050506040513d601f19601f820116820180604052508101906101cf9190610261565b94509450945094509450839550505050505090565b6000813590506101f381610421565b92915050565b60008151905061020881610438565b92915050565b60008151905061021d8161044f565b92915050565b60008151905061023281610466565b92915050565b60006020828403121561024a57600080fd5b6000610258848285016101e4565b91505092915050565b600080600080600060a0868803121561027957600080fd5b600061028788828901610223565b9550506020610298888289016101f9565b94505060406102a98882890161020e565b93505060606102ba8882890161020e565b92505060806102cb88828901610223565b9150509295509295909350565b6102e1816103ab565b82525050565b60006102f4601483610388565b91506102ff826103f5565b602082019050919050565b600061031760008361037d565b91506103228261041e565b600082019050919050565b60006103388261030a565b9150819050919050565b600060208201905061035760008301846102d8565b92915050565b60006020820190508181036000830152610376816102e7565b9050919050565b600081905092915050565b600082825260208201905092915050565b60006103a4826103b5565b9050919050565b6000819050919050565b600073ffffffffffffffffffffffffffffffffffffffff82169050919050565b6000819050919050565b600069ffffffffffffffffffff82169050919050565b7f4661696c656420746f2073656e64204574686572000000000000000000000000600082015250565b50565b61042a81610399565b811461043557600080fd5b50565b610441816103ab565b811461044c57600080fd5b50565b610458816103d5565b811461046357600080fd5b50565b61046f816103df565b811461047a57600080fd5b5056fea26469706673582212202cc0389c89ad5ab70a2c3a9d011a2cce1fc866c6e2e55e01956fdb67ec220d8564736f6c63430008040033",
  "linkReferences": {},
  "deployedLinkReferences": {}
}